{
  "_format": "hh-sol-artifact-1",
  "contractName": "ClapParty",
  "sourceName": "contracts/ClapParty.sol",
  "abi": [
    {
      "inputs": [],
      "stateMutability": "payable",
      "type": "constructor"
    },
    {
      "anonymous": false,
      "inputs": [
        {
          "indexed": true,
          "internalType": "address",
          "name": "from",
          "type": "address"
        },
        {
          "indexed": false,
          "internalType": "uint256",
          "name": "timestamp",
          "type": "uint256"
        },
        {
          "indexed": false,
          "internalType": "string",
          "name": "message",
          "type": "string"
        }
      ],
      "name": "NewClap",
      "type": "event"
    },
    {
      "inputs": [
        {
          "internalType": "string",
          "name": "_message",
          "type": "string"
        }
      ],
      "name": "clap",
      "outputs": [],
      "stateMutability": "nonpayable",
      "type": "function"
    },
    {
      "inputs": [
        {
          "internalType": "uint256",
          "name": "",
          "type": "uint256"
        }
      ],
      "name": "clappers",
      "outputs": [
        {
          "internalType": "address",
          "name": "",
          "type": "address"
        }
      ],
      "stateMutability": "view",
      "type": "function"
    },
    {
      "inputs": [],
      "name": "getAllClaps",
      "outputs": [
        {
          "components": [
            {
              "internalType": "address",
              "name": "clapper",
              "type": "address"
            },
            {
              "internalType": "uint256",
              "name": "timestamp",
              "type": "uint256"
            },
            {
              "internalType": "string",
              "name": "message",
              "type": "string"
            }
          ],
          "internalType": "struct ClapParty.Clap[]",
          "name": "",
          "type": "tuple[]"
        }
      ],
      "stateMutability": "view",
      "type": "function"
    },
    {
      "inputs": [],
      "name": "getClapGod",
      "outputs": [
        {
          "internalType": "address",
          "name": "",
          "type": "address"
        },
        {
          "internalType": "uint256",
          "name": "",
          "type": "uint256"
        }
      ],
      "stateMutability": "view",
      "type": "function"
    },
    {
      "inputs": [],
      "name": "getTotalClaps",
      "outputs": [
        {
          "internalType": "uint256",
          "name": "",
          "type": "uint256"
        }
      ],
      "stateMutability": "view",
      "type": "function"
    }
  ],
  "bytecode": "0x60806040526200003360405180606001604052806031815260200162001702603191396200005f60201b6200086f1760201c565b620000596005600354620000489190620002bd565b6200010260201b620009081760201c565b62000335565b620000ff8160405160240162000076919062000220565b6040516020818303038152906040527f41304fac000000000000000000000000000000000000000000000000000000007bffffffffffffffffffffffffffffffffffffffffffffffffffffffff19166020820180517bffffffffffffffffffffffffffffffffffffffffffffffffffffffff8381831617835250505050620001a560201b60201c565b50565b620001a28160405160240162000119919062000244565b6040516020818303038152906040527ff5b1bba9000000000000000000000000000000000000000000000000000000007bffffffffffffffffffffffffffffffffffffffffffffffffffffffff19166020820180517bffffffffffffffffffffffffffffffffffffffffffffffffffffffff8381831617835250505050620001a560201b60201c565b50565b60008151905060006a636f6e736f6c652e6c6f679050602083016000808483855afa5050505050565b6000620001db8262000261565b620001e781856200026c565b9350620001f981856020860162000287565b620002048162000324565b840191505092915050565b6200021a816200027d565b82525050565b600060208201905081810360008301526200023c8184620001ce565b905092915050565b60006020820190506200025b60008301846200020f565b92915050565b600081519050919050565b600082825260208201905092915050565b6000819050919050565b60005b83811015620002a75780820151818401526020810190506200028a565b83811115620002b7576000848401525b50505050565b6000620002ca826200027d565b9150620002d7836200027d565b925082620002ea57620002e9620002f5565b5b828206905092915050565b7f4e487b7100000000000000000000000000000000000000000000000000000000600052601260045260246000fd5b6000601f19601f8301169050919050565b6113bd80620003456000396000f3fe608060405234801561001057600080fd5b50600436106100575760003560e01c806311521d401461005c57806336ed19371461008c5780636804f8b8146100ab5780638745ee10146100c9578063ba642f52146100e7575b600080fd5b61007660048036038101906100719190610c66565b610103565b6040516100839190610e71565b60405180910390f35b610094610142565b6040516100a2929190610e8c565b60405180910390f35b6100b3610373565b6040516100c09190610f8e565b60405180910390f35b6100d16103be565b6040516100de9190610eb5565b60405180910390f35b61010160048036038101906100fc9190610c25565b61050f565b005b6001818154811061011357600080fd5b906000526020600020016000915054906101000a900473ffffffffffffffffffffffffffffffffffffffff1681565b60008060006001600081548110610182577f4e487b7100000000000000000000000000000000000000000000000000000000600052603260045260246000fd5b9060005260206000200160009054906101000a900473ffffffffffffffffffffffffffffffffffffffff16905060008060008373ffffffffffffffffffffffffffffffffffffffff1673ffffffffffffffffffffffffffffffffffffffff16815260200190815260200160002054905060005b600180549050811015610366578160008060018481548110610240577f4e487b7100000000000000000000000000000000000000000000000000000000600052603260045260246000fd5b9060005260206000200160009054906101000a900473ffffffffffffffffffffffffffffffffffffffff1673ffffffffffffffffffffffffffffffffffffffff1673ffffffffffffffffffffffffffffffffffffffff16815260200190815260200160002054111561035557600181815481106102e6577f4e487b7100000000000000000000000000000000000000000000000000000000600052603260045260246000fd5b9060005260206000200160009054906101000a900473ffffffffffffffffffffffffffffffffffffffff1692506000808473ffffffffffffffffffffffffffffffffffffffff1673ffffffffffffffffffffffffffffffffffffffff1681526020019081526020016000205491505b8061035f906111d7565b90506101f5565b5081819350935050509091565b60006103b66040518060400160405280601781526020017f5765206861766520256420746f74616c20636c617073210000000000000000008152506003546109a1565b600354905090565b60606004805480602002602001604051908101604052809291908181526020016000905b8282101561050657838290600052602060002090600302016040518060600160405290816000820160009054906101000a900473ffffffffffffffffffffffffffffffffffffffff1673ffffffffffffffffffffffffffffffffffffffff1673ffffffffffffffffffffffffffffffffffffffff1681526020016001820154815260200160028201805461047590611174565b80601f01602080910402602001604051908101604052809291908181526020018280546104a190611174565b80156104ee5780601f106104c3576101008083540402835291602001916104ee565b820191906000526020600020905b8154815290600101906020018083116104d157829003601f168201915b505050505081525050815260200190600101906103e2565b50505050905090565b60016000803373ffffffffffffffffffffffffffffffffffffffff1673ffffffffffffffffffffffffffffffffffffffff168152602001908152602001600020600082825461055e91906110a0565b9250508190555060016003600082825461057891906110a0565b92505081905550600260003373ffffffffffffffffffffffffffffffffffffffff1673ffffffffffffffffffffffffffffffffffffffff16815260200190815260200160002060009054906101000a900460ff16610634576001339080600181540180825580915050600190039060005260206000200160009091909190916101000a81548173ffffffffffffffffffffffffffffffffffffffff021916908373ffffffffffffffffffffffffffffffffffffffff1602179055505b600460405180606001604052803373ffffffffffffffffffffffffffffffffffffffff16815260200142815260200183815250908060018154018082558091505060019003906000526020600020906003020160009091909190915060008201518160000160006101000a81548173ffffffffffffffffffffffffffffffffffffffff021916908373ffffffffffffffffffffffffffffffffffffffff1602179055506020820151816001015560408201518160020190805190602001906106fd929190610b05565b5050506107406040518060400160405280601e81526020017f25732068617320636c61707065642077697468206d65737361676520257300008152503383610a3d565b3373ffffffffffffffffffffffffffffffffffffffff167fe9f152dbea403841dcf2e81a9d9de7a7d7b447a9993ac69670a42989baf534094283604051610788929190610fa9565b60405180910390a26000655af3107a40009050600060056003546107ac9190611220565b1480156107b857504781115b1561086b5760003373ffffffffffffffffffffffffffffffffffffffff16826040516107e390610e5c565b60006040518083038185875af1925050503d8060008114610820576040519150601f19603f3d011682016040523d82523d6000602084013e610825565b606091505b5050905080610869576040517f08c379a000000000000000000000000000000000000000000000000000000000815260040161086090610f6e565b60405180910390fd5b505b5050565b610905816040516024016108839190610ed7565b6040516020818303038152906040527f41304fac000000000000000000000000000000000000000000000000000000007bffffffffffffffffffffffffffffffffffffffffffffffffffffffff19166020820180517bffffffffffffffffffffffffffffffffffffffffffffffffffffffff8381831617835250505050610adc565b50565b61099e8160405160240161091c9190610f8e565b6040516020818303038152906040527ff5b1bba9000000000000000000000000000000000000000000000000000000007bffffffffffffffffffffffffffffffffffffffffffffffffffffffff19166020820180517bffffffffffffffffffffffffffffffffffffffffffffffffffffffff8381831617835250505050610adc565b50565b610a3982826040516024016109b7929190610f3e565b6040516020818303038152906040527f9710a9d0000000000000000000000000000000000000000000000000000000007bffffffffffffffffffffffffffffffffffffffffffffffffffffffff19166020820180517bffffffffffffffffffffffffffffffffffffffffffffffffffffffff8381831617835250505050610adc565b5050565b610ad7838383604051602401610a5593929190610ef9565b6040516020818303038152906040527fe0e9ad4f000000000000000000000000000000000000000000000000000000007bffffffffffffffffffffffffffffffffffffffffffffffffffffffff19166020820180517bffffffffffffffffffffffffffffffffffffffffffffffffffffffff8381831617835250505050610adc565b505050565b60008151905060006a636f6e736f6c652e6c6f679050602083016000808483855afa5050505050565b828054610b1190611174565b90600052602060002090601f016020900481019282610b335760008555610b7a565b82601f10610b4c57805160ff1916838001178555610b7a565b82800160010185558215610b7a579182015b82811115610b79578251825591602001919060010190610b5e565b5b509050610b879190610b8b565b5090565b5b80821115610ba4576000816000905550600101610b8c565b5090565b6000610bbb610bb684610ffe565b610fd9565b905082815260208101848484011115610bd357600080fd5b610bde848285611132565b509392505050565b600082601f830112610bf757600080fd5b8135610c07848260208601610ba8565b91505092915050565b600081359050610c1f81611370565b92915050565b600060208284031215610c3757600080fd5b600082013567ffffffffffffffff811115610c5157600080fd5b610c5d84828501610be6565b91505092915050565b600060208284031215610c7857600080fd5b6000610c8684828501610c10565b91505092915050565b6000610c9b8383610dee565b905092915050565b610cac816110f6565b82525050565b610cbb816110f6565b82525050565b6000610ccc8261103f565b610cd68185611062565b935083602082028501610ce88561102f565b8060005b85811015610d245784840389528151610d058582610c8f565b9450610d1083611055565b925060208a01995050600181019050610cec565b50829750879550505050505092915050565b6000610d418261104a565b610d4b818561107e565b9350610d5b818560208601611141565b610d648161130d565b840191505092915050565b6000610d7a8261104a565b610d84818561108f565b9350610d94818560208601611141565b610d9d8161130d565b840191505092915050565b6000610db5600083611073565b9150610dc08261131e565b600082019050919050565b6000610dd860238361108f565b9150610de382611321565b604082019050919050565b6000606083016000830151610e066000860182610ca3565b506020830151610e196020860182610e3e565b5060408301518482036040860152610e318282610d36565b9150508091505092915050565b610e4781611128565b82525050565b610e5681611128565b82525050565b6000610e6782610da8565b9150819050919050565b6000602082019050610e866000830184610cb2565b92915050565b6000604082019050610ea16000830185610cb2565b610eae6020830184610e4d565b9392505050565b60006020820190508181036000830152610ecf8184610cc1565b905092915050565b60006020820190508181036000830152610ef18184610d6f565b905092915050565b60006060820190508181036000830152610f138186610d6f565b9050610f226020830185610cb2565b8181036040830152610f348184610d6f565b9050949350505050565b60006040820190508181036000830152610f588185610d6f565b9050610f676020830184610e4d565b9392505050565b60006020820190508181036000830152610f8781610dcb565b9050919050565b6000602082019050610fa36000830184610e4d565b92915050565b6000604082019050610fbe6000830185610e4d565b8181036020830152610fd08184610d6f565b90509392505050565b6000610fe3610ff4565b9050610fef82826111a6565b919050565b6000604051905090565b600067ffffffffffffffff821115611019576110186112de565b5b6110228261130d565b9050602081019050919050565b6000819050602082019050919050565b600081519050919050565b600081519050919050565b6000602082019050919050565b600082825260208201905092915050565b600081905092915050565b600082825260208201905092915050565b600082825260208201905092915050565b60006110ab82611128565b91506110b683611128565b9250827fffffffffffffffffffffffffffffffffffffffffffffffffffffffffffffffff038211156110eb576110ea611251565b5b828201905092915050565b600061110182611108565b9050919050565b600073ffffffffffffffffffffffffffffffffffffffff82169050919050565b6000819050919050565b82818337600083830152505050565b60005b8381101561115f578082015181840152602081019050611144565b8381111561116e576000848401525b50505050565b6000600282049050600182168061118c57607f821691505b602082108114156111a05761119f6112af565b5b50919050565b6111af8261130d565b810181811067ffffffffffffffff821117156111ce576111cd6112de565b5b80604052505050565b60006111e282611128565b91507fffffffffffffffffffffffffffffffffffffffffffffffffffffffffffffffff82141561121557611214611251565b5b600182019050919050565b600061122b82611128565b915061123683611128565b92508261124657611245611280565b5b828206905092915050565b7f4e487b7100000000000000000000000000000000000000000000000000000000600052601160045260246000fd5b7f4e487b7100000000000000000000000000000000000000000000000000000000600052601260045260246000fd5b7f4e487b7100000000000000000000000000000000000000000000000000000000600052602260045260246000fd5b7f4e487b7100000000000000000000000000000000000000000000000000000000600052604160045260246000fd5b6000601f19601f8301169050919050565b50565b7f4661696c656420746f2073656e64206d6f6e65792066726f6d20636f6e74726160008201527f6374210000000000000000000000000000000000000000000000000000000000602082015250565b61137981611128565b811461138457600080fd5b5056fea2646970667358221220b35cb1a70d97e9916c3c00af1fface77f36422daecbddd46da48d219f0a6de7764736f6c634300080400334861726468617420697320736f20636f6f6c2077652063616e2075736520636f6e736f6c652e6c6f672068657265203a44",
  "linkReferences": {},
  "deployedLinkReferences": {}
}