{
  "_format": "hh-sol-artifact-1",
  "contractName": "ClapParty",
  "sourceName": "contracts/ClapParty.sol",
  "abi": [
    {
      "inputs": [],
      "stateMutability": "payable",
      "type": "constructor"
    },
    {
      "anonymous": false,
      "inputs": [
        {
          "indexed": true,
          "internalType": "address",
          "name": "from",
          "type": "address"
        },
        {
          "indexed": false,
          "internalType": "uint256",
          "name": "timestamp",
          "type": "uint256"
        },
        {
          "indexed": false,
          "internalType": "string",
          "name": "message",
          "type": "string"
        }
      ],
      "name": "NewClap",
      "type": "event"
    },
    {
      "inputs": [
        {
          "internalType": "string",
          "name": "_message",
          "type": "string"
        }
      ],
      "name": "clap",
      "outputs": [],
      "stateMutability": "nonpayable",
      "type": "function"
    },
    {
      "inputs": [
        {
          "internalType": "uint256",
          "name": "",
          "type": "uint256"
        }
      ],
      "name": "clappers",
      "outputs": [
        {
          "internalType": "address",
          "name": "",
          "type": "address"
        }
      ],
      "stateMutability": "view",
      "type": "function"
    },
    {
      "inputs": [],
      "name": "getAllClaps",
      "outputs": [
        {
          "components": [
            {
              "internalType": "address",
              "name": "clapper",
              "type": "address"
            },
            {
              "internalType": "uint256",
              "name": "timestamp",
              "type": "uint256"
            },
            {
              "internalType": "string",
              "name": "message",
              "type": "string"
            }
          ],
          "internalType": "struct ClapParty.Clap[]",
          "name": "",
          "type": "tuple[]"
        }
      ],
      "stateMutability": "view",
      "type": "function"
    },
    {
      "inputs": [],
      "name": "getClapGod",
      "outputs": [
        {
          "internalType": "address",
          "name": "",
          "type": "address"
        },
        {
          "internalType": "uint256",
          "name": "",
          "type": "uint256"
        }
      ],
      "stateMutability": "view",
      "type": "function"
    },
    {
      "inputs": [],
      "name": "getTotalClaps",
      "outputs": [
        {
          "internalType": "uint256",
          "name": "",
          "type": "uint256"
        }
      ],
      "stateMutability": "view",
      "type": "function"
    }
  ],
  "bytecode": "0x608060405262000033604051806060016040528060318152602001620017bb603191396200005b60201b620009781760201c565b60644244620000439190620001a8565b6200004f919062000245565b600681905550620002ec565b620000fb8160405160240162000072919062000168565b6040516020818303038152906040527f41304fac000000000000000000000000000000000000000000000000000000007bffffffffffffffffffffffffffffffffffffffffffffffffffffffff19166020820180517bffffffffffffffffffffffffffffffffffffffffffffffffffffffff8381831617835250505050620000fe60201b60201c565b50565b60008151905060006a636f6e736f6c652e6c6f679050602083016000808483855afa5050505050565b600062000134826200018c565b62000140818562000197565b9350620001528185602086016200020f565b6200015d81620002db565b840191505092915050565b6000602082019050818103600083015262000184818462000127565b905092915050565b600081519050919050565b600082825260208201905092915050565b6000620001b58262000205565b9150620001c28362000205565b9250827fffffffffffffffffffffffffffffffffffffffffffffffffffffffffffffffff03821115620001fa57620001f96200027d565b5b828201905092915050565b6000819050919050565b60005b838110156200022f57808201518184015260208101905062000212565b838111156200023f576000848401525b50505050565b6000620002528262000205565b91506200025f8362000205565b925082620002725762000271620002ac565b5b828206905092915050565b7f4e487b7100000000000000000000000000000000000000000000000000000000600052601160045260246000fd5b7f4e487b7100000000000000000000000000000000000000000000000000000000600052601260045260246000fd5b6000601f19601f8301169050919050565b6114bf80620002fc6000396000f3fe608060405234801561001057600080fd5b50600436106100575760003560e01c806311521d401461005c57806336ed19371461008c5780636804f8b8146100ab5780638745ee10146100c9578063ba642f52146100e7575b600080fd5b61007660048036038101906100719190610cd6565b610103565b6040516100839190610f04565b60405180910390f35b610094610142565b6040516100a2929190610f1f565b60405180910390f35b6100b3610373565b6040516100c09190611041565b60405180910390f35b6100d16103be565b6040516100de9190610f48565b60405180910390f35b61010160048036038101906100fc9190610c95565b61050f565b005b6001818154811061011357600080fd5b906000526020600020016000915054906101000a900473ffffffffffffffffffffffffffffffffffffffff1681565b60008060006001600081548110610182577f4e487b7100000000000000000000000000000000000000000000000000000000600052603260045260246000fd5b9060005260206000200160009054906101000a900473ffffffffffffffffffffffffffffffffffffffff16905060008060008373ffffffffffffffffffffffffffffffffffffffff1673ffffffffffffffffffffffffffffffffffffffff16815260200190815260200160002054905060005b600180549050811015610366578160008060018481548110610240577f4e487b7100000000000000000000000000000000000000000000000000000000600052603260045260246000fd5b9060005260206000200160009054906101000a900473ffffffffffffffffffffffffffffffffffffffff1673ffffffffffffffffffffffffffffffffffffffff1673ffffffffffffffffffffffffffffffffffffffff16815260200190815260200160002054111561035557600181815481106102e6577f4e487b7100000000000000000000000000000000000000000000000000000000600052603260045260246000fd5b9060005260206000200160009054906101000a900473ffffffffffffffffffffffffffffffffffffffff1692506000808473ffffffffffffffffffffffffffffffffffffffff1673ffffffffffffffffffffffffffffffffffffffff1681526020019081526020016000205491505b8061035f9061128a565b90506101f5565b5081819350935050509091565b60006103b66040518060400160405280601781526020017f5765206861766520256420746f74616c20636c61707321000000000000000000815250600354610a11565b600354905090565b60606005805480602002602001604051908101604052809291908181526020016000905b8282101561050657838290600052602060002090600302016040518060600160405290816000820160009054906101000a900473ffffffffffffffffffffffffffffffffffffffff1673ffffffffffffffffffffffffffffffffffffffff1673ffffffffffffffffffffffffffffffffffffffff1681526020016001820154815260200160028201805461047590611227565b80601f01602080910402602001604051908101604052809291908181526020018280546104a190611227565b80156104ee5780601f106104c3576101008083540402835291602001916104ee565b820191906000526020600020905b8154815290600101906020018083116104d157829003601f168201915b505050505081525050815260200190600101906103e2565b50505050905090565b4260b4600460003373ffffffffffffffffffffffffffffffffffffffff1673ffffffffffffffffffffffffffffffffffffffff1681526020019081526020016000205461055c9190611153565b1061059c576040517f08c379a000000000000000000000000000000000000000000000000000000000815260040161059390611021565b60405180910390fd5b42600460003373ffffffffffffffffffffffffffffffffffffffff1673ffffffffffffffffffffffffffffffffffffffff1681526020019081526020016000208190555060016000803373ffffffffffffffffffffffffffffffffffffffff1673ffffffffffffffffffffffffffffffffffffffff168152602001908152602001600020600082825461062f9190611153565b925050819055506001600360008282546106499190611153565b92505081905550600260003373ffffffffffffffffffffffffffffffffffffffff1673ffffffffffffffffffffffffffffffffffffffff16815260200190815260200160002060009054906101000a900460ff16610705576001339080600181540180825580915050600190039060005260206000200160009091909190916101000a81548173ffffffffffffffffffffffffffffffffffffffff021916908373ffffffffffffffffffffffffffffffffffffffff1602179055505b600560405180606001604052803373ffffffffffffffffffffffffffffffffffffffff16815260200142815260200183815250908060018154018082558091505060019003906000526020600020906003020160009091909190915060008201518160000160006101000a81548173ffffffffffffffffffffffffffffffffffffffff021916908373ffffffffffffffffffffffffffffffffffffffff1602179055506020820151816001015560408201518160020190805190602001906107ce929190610b75565b5050506108116040518060400160405280601e81526020017f25732068617320636c61707065642077697468206d65737361676520257300008152503383610aad565b3373ffffffffffffffffffffffffffffffffffffffff167fe9f152dbea403841dcf2e81a9d9de7a7d7b447a9993ac69670a42989baf53409428360405161085992919061105c565b60405180910390a2606460065442446108729190611153565b61087c9190611153565b61088691906112d3565b6006819055506000655af3107a40009050600060056003546108a891906112d3565b14806108b65750601e600654105b80156108c157504781105b156109745760003373ffffffffffffffffffffffffffffffffffffffff16826040516108ec90610eef565b60006040518083038185875af1925050503d8060008114610929576040519150601f19603f3d011682016040523d82523d6000602084013e61092e565b606091505b5050905080610972576040517f08c379a000000000000000000000000000000000000000000000000000000000815260040161096990611001565b60405180910390fd5b505b5050565b610a0e8160405160240161098c9190610f6a565b6040516020818303038152906040527f41304fac000000000000000000000000000000000000000000000000000000007bffffffffffffffffffffffffffffffffffffffffffffffffffffffff19166020820180517bffffffffffffffffffffffffffffffffffffffffffffffffffffffff8381831617835250505050610b4c565b50565b610aa98282604051602401610a27929190610fd1565b6040516020818303038152906040527f9710a9d0000000000000000000000000000000000000000000000000000000007bffffffffffffffffffffffffffffffffffffffffffffffffffffffff19166020820180517bffffffffffffffffffffffffffffffffffffffffffffffffffffffff8381831617835250505050610b4c565b5050565b610b47838383604051602401610ac593929190610f8c565b6040516020818303038152906040527fe0e9ad4f000000000000000000000000000000000000000000000000000000007bffffffffffffffffffffffffffffffffffffffffffffffffffffffff19166020820180517bffffffffffffffffffffffffffffffffffffffffffffffffffffffff8381831617835250505050610b4c565b505050565b60008151905060006a636f6e736f6c652e6c6f679050602083016000808483855afa5050505050565b828054610b8190611227565b90600052602060002090601f016020900481019282610ba35760008555610bea565b82601f10610bbc57805160ff1916838001178555610bea565b82800160010185558215610bea579182015b82811115610be9578251825591602001919060010190610bce565b5b509050610bf79190610bfb565b5090565b5b80821115610c14576000816000905550600101610bfc565b5090565b6000610c2b610c26846110b1565b61108c565b905082815260208101848484011115610c4357600080fd5b610c4e8482856111e5565b509392505050565b600082601f830112610c6757600080fd5b8135610c77848260208601610c18565b91505092915050565b600081359050610c8f81611472565b92915050565b600060208284031215610ca757600080fd5b600082013567ffffffffffffffff811115610cc157600080fd5b610ccd84828501610c56565b91505092915050565b600060208284031215610ce857600080fd5b6000610cf684828501610c80565b91505092915050565b6000610d0b8383610e81565b905092915050565b610d1c816111a9565b82525050565b610d2b816111a9565b82525050565b6000610d3c826110f2565b610d468185611115565b935083602082028501610d58856110e2565b8060005b85811015610d945784840389528151610d758582610cff565b9450610d8083611108565b925060208a01995050600181019050610d5c565b50829750879550505050505092915050565b6000610db1826110fd565b610dbb8185611131565b9350610dcb8185602086016111f4565b610dd4816113c0565b840191505092915050565b6000610dea826110fd565b610df48185611142565b9350610e048185602086016111f4565b610e0d816113c0565b840191505092915050565b6000610e25600083611126565b9150610e30826113d1565b600082019050919050565b6000610e48602383611142565b9150610e53826113d4565b604082019050919050565b6000610e6b602683611142565b9150610e7682611423565b604082019050919050565b6000606083016000830151610e996000860182610d13565b506020830151610eac6020860182610ed1565b5060408301518482036040860152610ec48282610da6565b9150508091505092915050565b610eda816111db565b82525050565b610ee9816111db565b82525050565b6000610efa82610e18565b9150819050919050565b6000602082019050610f196000830184610d22565b92915050565b6000604082019050610f346000830185610d22565b610f416020830184610ee0565b9392505050565b60006020820190508181036000830152610f628184610d31565b905092915050565b60006020820190508181036000830152610f848184610ddf565b905092915050565b60006060820190508181036000830152610fa68186610ddf565b9050610fb56020830185610d22565b8181036040830152610fc78184610ddf565b9050949350505050565b60006040820190508181036000830152610feb8185610ddf565b9050610ffa6020830184610ee0565b9392505050565b6000602082019050818103600083015261101a81610e3b565b9050919050565b6000602082019050818103600083015261103a81610e5e565b9050919050565b60006020820190506110566000830184610ee0565b92915050565b60006040820190506110716000830185610ee0565b81810360208301526110838184610ddf565b90509392505050565b60006110966110a7565b90506110a28282611259565b919050565b6000604051905090565b600067ffffffffffffffff8211156110cc576110cb611391565b5b6110d5826113c0565b9050602081019050919050565b6000819050602082019050919050565b600081519050919050565b600081519050919050565b6000602082019050919050565b600082825260208201905092915050565b600081905092915050565b600082825260208201905092915050565b600082825260208201905092915050565b600061115e826111db565b9150611169836111db565b9250827fffffffffffffffffffffffffffffffffffffffffffffffffffffffffffffffff0382111561119e5761119d611304565b5b828201905092915050565b60006111b4826111bb565b9050919050565b600073ffffffffffffffffffffffffffffffffffffffff82169050919050565b6000819050919050565b82818337600083830152505050565b60005b838110156112125780820151818401526020810190506111f7565b83811115611221576000848401525b50505050565b6000600282049050600182168061123f57607f821691505b6020821081141561125357611252611362565b5b50919050565b611262826113c0565b810181811067ffffffffffffffff8211171561128157611280611391565b5b80604052505050565b6000611295826111db565b91507fffffffffffffffffffffffffffffffffffffffffffffffffffffffffffffffff8214156112c8576112c7611304565b5b600182019050919050565b60006112de826111db565b91506112e9836111db565b9250826112f9576112f8611333565b5b828206905092915050565b7f4e487b7100000000000000000000000000000000000000000000000000000000600052601160045260246000fd5b7f4e487b7100000000000000000000000000000000000000000000000000000000600052601260045260246000fd5b7f4e487b7100000000000000000000000000000000000000000000000000000000600052602260045260246000fd5b7f4e487b7100000000000000000000000000000000000000000000000000000000600052604160045260246000fd5b6000601f19601f8301169050919050565b50565b7f4661696c656420746f2073656e64206d6f6e65792066726f6d20636f6e74726160008201527f6374210000000000000000000000000000000000000000000000000000000000602082015250565b7f596f752063616e206f6e6c7920636c6170206f6e63652065766572792033206d60008201527f696e757465730000000000000000000000000000000000000000000000000000602082015250565b61147b816111db565b811461148657600080fd5b5056fea26469706673582212207b60ce6e218c75600b2bbbd76e961ae92182b4840a6517b63f3a1362e30f165364736f6c634300080400334861726468617420697320736f20636f6f6c2077652063616e2075736520636f6e736f6c652e6c6f672068657265203a44",
  "linkReferences": {},
  "deployedLinkReferences": {}
}