{
  "_format": "hh-sol-artifact-1",
  "contractName": "ClapParty",
  "sourceName": "contracts/ClapParty.sol",
  "abi": [
    {
      "inputs": [],
      "stateMutability": "nonpayable",
      "type": "constructor"
    },
    {
      "inputs": [],
      "name": "clap",
      "outputs": [],
      "stateMutability": "nonpayable",
      "type": "function"
    },
    {
      "inputs": [
        {
          "internalType": "uint256",
          "name": "",
          "type": "uint256"
        }
      ],
      "name": "clappers",
      "outputs": [
        {
          "internalType": "address",
          "name": "",
          "type": "address"
        }
      ],
      "stateMutability": "view",
      "type": "function"
    },
    {
      "inputs": [],
      "name": "getClapGod",
      "outputs": [
        {
          "internalType": "address",
          "name": "",
          "type": "address"
        },
        {
          "internalType": "uint256",
          "name": "",
          "type": "uint256"
        }
      ],
      "stateMutability": "view",
      "type": "function"
    },
    {
      "inputs": [],
      "name": "getTotalClaps",
      "outputs": [
        {
          "internalType": "uint256",
          "name": "",
          "type": "uint256"
        }
      ],
      "stateMutability": "view",
      "type": "function"
    }
  ],
  "bytecode": "0x608060405234801561001057600080fd5b5061003c604051806060016040528060318152602001610be36031913961004160201b6104e91760201c565b6101c4565b6100dd816040516024016100559190610142565b6040516020818303038152906040527f41304fac000000000000000000000000000000000000000000000000000000007bffffffffffffffffffffffffffffffffffffffffffffffffffffffff19166020820180517bffffffffffffffffffffffffffffffffffffffffffffffffffffffff83818316178352505050506100e060201b60201c565b50565b60008151905060006a636f6e736f6c652e6c6f679050602083016000808483855afa5050505050565b600061011482610164565b61011e818561016f565b935061012e818560208601610180565b610137816101b3565b840191505092915050565b6000602082019050818103600083015261015c8184610109565b905092915050565b600081519050919050565b600082825260208201905092915050565b60005b8381101561019e578082015181840152602081019050610183565b838111156101ad576000848401525b50505050565b6000601f19601f8301169050919050565b610a10806101d36000396000f3fe608060405234801561001057600080fd5b506004361061004c5760003560e01c806311521d401461005157806336ed1937146100815780636804f8b8146100a057806387273b84146100be575b600080fd5b61006b600480360381019061006691906106f8565b6100c8565b6040516100789190610778565b60405180910390f35b610089610107565b604051610097929190610793565b60405180910390f35b6100a8610338565b6040516100b5919061083e565b60405180910390f35b6100c6610383565b005b600181815481106100d857600080fd5b906000526020600020016000915054906101000a900473ffffffffffffffffffffffffffffffffffffffff1681565b60008060006001600081548110610147577f4e487b7100000000000000000000000000000000000000000000000000000000600052603260045260246000fd5b9060005260206000200160009054906101000a900473ffffffffffffffffffffffffffffffffffffffff16905060008060008373ffffffffffffffffffffffffffffffffffffffff1673ffffffffffffffffffffffffffffffffffffffff16815260200190815260200160002054905060005b60018054905081101561032b578160008060018481548110610205577f4e487b7100000000000000000000000000000000000000000000000000000000600052603260045260246000fd5b9060005260206000200160009054906101000a900473ffffffffffffffffffffffffffffffffffffffff1673ffffffffffffffffffffffffffffffffffffffff1673ffffffffffffffffffffffffffffffffffffffff16815260200190815260200160002054111561031a57600181815481106102ab577f4e487b7100000000000000000000000000000000000000000000000000000000600052603260045260246000fd5b9060005260206000200160009054906101000a900473ffffffffffffffffffffffffffffffffffffffff1692506000808473ffffffffffffffffffffffffffffffffffffffff1673ffffffffffffffffffffffffffffffffffffffff1681526020019081526020016000205491505b806103249061093a565b90506101ba565b5081819350935050509091565b600061037b6040518060400160405280601781526020017f5765206861766520256420746f74616c20636c61707321000000000000000000815250600354610582565b600354905090565b60016000803373ffffffffffffffffffffffffffffffffffffffff1673ffffffffffffffffffffffffffffffffffffffff16815260200190815260200160002060008282546103d29190610875565b925050819055506001600360008282546103ec9190610875565b92505081905550600260003373ffffffffffffffffffffffffffffffffffffffff1673ffffffffffffffffffffffffffffffffffffffff16815260200190815260200160002060009054906101000a900460ff166104a8576001339080600181540180825580915050600190039060005260206000200160009091909190916101000a81548173ffffffffffffffffffffffffffffffffffffffff021916908373ffffffffffffffffffffffffffffffffffffffff1602179055505b6104e76040518060400160405280600f81526020017f25732068617320636c61707065642100000000000000000000000000000000008152503361061e565b565b61057f816040516024016104fd91906107bc565b6040516020818303038152906040527f41304fac000000000000000000000000000000000000000000000000000000007bffffffffffffffffffffffffffffffffffffffffffffffffffffffff19166020820180517bffffffffffffffffffffffffffffffffffffffffffffffffffffffff83818316178352505050506106ba565b50565b61061a828260405160240161059892919061080e565b6040516020818303038152906040527f9710a9d0000000000000000000000000000000000000000000000000000000007bffffffffffffffffffffffffffffffffffffffffffffffffffffffff19166020820180517bffffffffffffffffffffffffffffffffffffffffffffffffffffffff83818316178352505050506106ba565b5050565b6106b682826040516024016106349291906107de565b6040516020818303038152906040527f319af333000000000000000000000000000000000000000000000000000000007bffffffffffffffffffffffffffffffffffffffffffffffffffffffff19166020820180517bffffffffffffffffffffffffffffffffffffffffffffffffffffffff83818316178352505050506106ba565b5050565b60008151905060006a636f6e736f6c652e6c6f679050602083016000808483855afa5050505050565b6000813590506106f2816109c3565b92915050565b60006020828403121561070a57600080fd5b6000610718848285016106e3565b91505092915050565b61072a816108cb565b82525050565b600061073b82610859565b6107458185610864565b9350610755818560208601610907565b61075e816109b2565b840191505092915050565b610772816108fd565b82525050565b600060208201905061078d6000830184610721565b92915050565b60006040820190506107a86000830185610721565b6107b56020830184610769565b9392505050565b600060208201905081810360008301526107d68184610730565b905092915050565b600060408201905081810360008301526107f88185610730565b90506108076020830184610721565b9392505050565b600060408201905081810360008301526108288185610730565b90506108376020830184610769565b9392505050565b60006020820190506108536000830184610769565b92915050565b600081519050919050565b600082825260208201905092915050565b6000610880826108fd565b915061088b836108fd565b9250827fffffffffffffffffffffffffffffffffffffffffffffffffffffffffffffffff038211156108c0576108bf610983565b5b828201905092915050565b60006108d6826108dd565b9050919050565b600073ffffffffffffffffffffffffffffffffffffffff82169050919050565b6000819050919050565b60005b8381101561092557808201518184015260208101905061090a565b83811115610934576000848401525b50505050565b6000610945826108fd565b91507fffffffffffffffffffffffffffffffffffffffffffffffffffffffffffffffff82141561097857610977610983565b5b600182019050919050565b7f4e487b7100000000000000000000000000000000000000000000000000000000600052601160045260246000fd5b6000601f19601f8301169050919050565b6109cc816108fd565b81146109d757600080fd5b5056fea2646970667358221220d6692c629c02e396c95fb7724061f6eddec79b6a697a39a6381d8e420a72281464736f6c634300080400334861726468617420697320736f20636f6f6c2077652063616e2075736520636f6e736f6c652e6c6f672068657265203a44",
  "linkReferences": {},
  "deployedLinkReferences": {}
}