{
  "contractName": "FundMe",
  "abi": [
    {
      "inputs": [],
      "stateMutability": "nonpayable",
      "type": "constructor"
    },
    {
      "anonymous": false,
      "inputs": [
        {
          "indexed": true,
          "internalType": "address",
          "name": "previousOwner",
          "type": "address"
        },
        {
          "indexed": true,
          "internalType": "address",
          "name": "newOwner",
          "type": "address"
        }
      ],
      "name": "OwnershipTransferred",
      "type": "event"
    },
    {
      "inputs": [
        {
          "internalType": "address",
          "name": "",
          "type": "address"
        }
      ],
      "name": "addressToAmountFunded",
      "outputs": [
        {
          "internalType": "uint256",
          "name": "",
          "type": "uint256"
        }
      ],
      "stateMutability": "view",
      "type": "function",
      "constant": true
    },
    {
      "inputs": [
        {
          "internalType": "uint256",
          "name": "",
          "type": "uint256"
        }
      ],
      "name": "funders",
      "outputs": [
        {
          "internalType": "address",
          "name": "",
          "type": "address"
        }
      ],
      "stateMutability": "view",
      "type": "function",
      "constant": true
    },
    {
      "inputs": [],
      "name": "owner",
      "outputs": [
        {
          "internalType": "address",
          "name": "",
          "type": "address"
        }
      ],
      "stateMutability": "view",
      "type": "function",
      "constant": true
    },
    {
      "inputs": [],
      "name": "renounceOwnership",
      "outputs": [],
      "stateMutability": "nonpayable",
      "type": "function"
    },
    {
      "inputs": [
        {
          "internalType": "address",
          "name": "newOwner",
          "type": "address"
        }
      ],
      "name": "transferOwnership",
      "outputs": [],
      "stateMutability": "nonpayable",
      "type": "function"
    },
    {
      "inputs": [],
      "name": "fund",
      "outputs": [],
      "stateMutability": "payable",
      "type": "function",
      "payable": true
    },
    {
      "inputs": [],
      "name": "getLatestPrice",
      "outputs": [
        {
          "internalType": "uint256",
          "name": "",
          "type": "uint256"
        }
      ],
      "stateMutability": "view",
      "type": "function",
      "constant": true
    },
    {
      "inputs": [
        {
          "internalType": "uint256",
          "name": "bnbAmount",
          "type": "uint256"
        }
      ],
      "name": "getConversionRate",
      "outputs": [
        {
          "internalType": "uint256",
          "name": "",
          "type": "uint256"
        }
      ],
      "stateMutability": "view",
      "type": "function",
      "constant": true
    },
    {
      "inputs": [],
      "name": "withdraw",
      "outputs": [],
      "stateMutability": "payable",
      "type": "function",
      "payable": true
    }
  ],
  "bytecode": "0x608060405234801561001057600080fd5b5061002d61002261008760201b60201c565b61008f60201b60201c565b732514895c72f50d8bd4b4f9b1110f0d6bd2c97526600360006101000a81548173ffffffffffffffffffffffffffffffffffffffff021916908373ffffffffffffffffffffffffffffffffffffffff160217905550610153565b600033905090565b60008060009054906101000a900473ffffffffffffffffffffffffffffffffffffffff169050816000806101000a81548173ffffffffffffffffffffffffffffffffffffffff021916908373ffffffffffffffffffffffffffffffffffffffff1602179055508173ffffffffffffffffffffffffffffffffffffffff168173ffffffffffffffffffffffffffffffffffffffff167f8be0079c531659141344cd1fd0a4f28419497f9722a3daafe3b4186f6b6457e060405160405180910390a35050565b61116b806101626000396000f3fe6080604052600436106100865760003560e01c80638da5cb5b116100595780638da5cb5b146101265780638e15f47314610151578063b60d42881461017c578063dc0d3dff14610186578063f2fde38b146101c357610086565b80633ccfd60b1461008b5780633e47d6f3146100955780636e5b6b28146100d2578063715018a61461010f575b600080fd5b6100936101ec565b005b3480156100a157600080fd5b506100bc60048036038101906100b791906109f9565b610424565b6040516100c99190610a3f565b60405180910390f35b3480156100de57600080fd5b506100f960048036038101906100f49190610a86565b61043c565b6040516101069190610a3f565b60405180910390f35b34801561011b57600080fd5b50610124610476565b005b34801561013257600080fd5b5061013b6104fe565b6040516101489190610ac2565b60405180910390f35b34801561015d57600080fd5b50610166610527565b6040516101739190610a3f565b60405180910390f35b6101846105d8565b005b34801561019257600080fd5b506101ad60048036038101906101a89190610a86565b6106ec565b6040516101ba9190610ac2565b60405180910390f35b3480156101cf57600080fd5b506101ea60048036038101906101e591906109f9565b61072b565b005b6101f4610823565b73ffffffffffffffffffffffffffffffffffffffff166102126104fe565b73ffffffffffffffffffffffffffffffffffffffff1614610268576040517f08c379a000000000000000000000000000000000000000000000000000000000815260040161025f90610b3a565b60405180910390fd5b60003373ffffffffffffffffffffffffffffffffffffffff164760405161028e90610b8b565b60006040518083038185875af1925050503d80600081146102cb576040519150601f19603f3d011682016040523d82523d6000602084013e6102d0565b606091505b5050905080610314576040517f08c379a000000000000000000000000000000000000000000000000000000000815260040161030b90610bec565b60405180910390fd5b60005b6002805490508110156103c05760006002828154811061033a57610339610c0c565b5b9060005260206000200160009054906101000a900473ffffffffffffffffffffffffffffffffffffffff1690506000600160008373ffffffffffffffffffffffffffffffffffffffff1673ffffffffffffffffffffffffffffffffffffffff168152602001908152602001600020819055505080806103b890610c6a565b915050610317565b50600067ffffffffffffffff8111156103dc576103db610cb3565b5b60405190808252806020026020018201604052801561040a5781602001602082028036833780820191505090505b50600290805190602001906104209291906108ef565b5050565b60016020528060005260406000206000915090505481565b600080610447610527565b90506000670de0b6b3a764000082856104609190610ce2565b61046a9190610d6b565b90508092505050919050565b61047e610823565b73ffffffffffffffffffffffffffffffffffffffff1661049c6104fe565b73ffffffffffffffffffffffffffffffffffffffff16146104f2576040517f08c379a00000000000000000000000000000000000000000000000000000000081526004016104e990610b3a565b60405180910390fd5b6104fc600061082b565b565b60008060009054906101000a900473ffffffffffffffffffffffffffffffffffffffff16905090565b600080600360009054906101000a900473ffffffffffffffffffffffffffffffffffffffff1673ffffffffffffffffffffffffffffffffffffffff1663feaf968c6040518163ffffffff1660e01b815260040160a060405180830381865afa158015610597573d6000803e3d6000fd5b505050506040513d601f19601f820116820180604052508101906105bb9190610e29565b5050509150506402540be400816105d29190610ea4565b91505090565b600067016345785d8a00009050806105ef3461043c565b1015610630576040517f08c379a00000000000000000000000000000000000000000000000000000000081526004016106279061102d565b60405180910390fd5b34600160003373ffffffffffffffffffffffffffffffffffffffff1673ffffffffffffffffffffffffffffffffffffffff168152602001908152602001600020600082825461067f919061104d565b925050819055506002339080600181540180825580915050600190039060005260206000200160009091909190916101000a81548173ffffffffffffffffffffffffffffffffffffffff021916908373ffffffffffffffffffffffffffffffffffffffff16021790555050565b600281815481106106fc57600080fd5b906000526020600020016000915054906101000a900473ffffffffffffffffffffffffffffffffffffffff1681565b610733610823565b73ffffffffffffffffffffffffffffffffffffffff166107516104fe565b73ffffffffffffffffffffffffffffffffffffffff16146107a7576040517f08c379a000000000000000000000000000000000000000000000000000000000815260040161079e90610b3a565b60405180910390fd5b600073ffffffffffffffffffffffffffffffffffffffff168173ffffffffffffffffffffffffffffffffffffffff161415610817576040517f08c379a000000000000000000000000000000000000000000000000000000000815260040161080e90611115565b60405180910390fd5b6108208161082b565b50565b600033905090565b60008060009054906101000a900473ffffffffffffffffffffffffffffffffffffffff169050816000806101000a81548173ffffffffffffffffffffffffffffffffffffffff021916908373ffffffffffffffffffffffffffffffffffffffff1602179055508173ffffffffffffffffffffffffffffffffffffffff168173ffffffffffffffffffffffffffffffffffffffff167f8be0079c531659141344cd1fd0a4f28419497f9722a3daafe3b4186f6b6457e060405160405180910390a35050565b828054828255906000526020600020908101928215610968579160200282015b828111156109675782518260006101000a81548173ffffffffffffffffffffffffffffffffffffffff021916908373ffffffffffffffffffffffffffffffffffffffff1602179055509160200191906001019061090f565b5b5090506109759190610979565b5090565b5b8082111561099257600081600090555060010161097a565b5090565b600080fd5b600073ffffffffffffffffffffffffffffffffffffffff82169050919050565b60006109c68261099b565b9050919050565b6109d6816109bb565b81146109e157600080fd5b50565b6000813590506109f3816109cd565b92915050565b600060208284031215610a0f57610a0e610996565b5b6000610a1d848285016109e4565b91505092915050565b6000819050919050565b610a3981610a26565b82525050565b6000602082019050610a546000830184610a30565b92915050565b610a6381610a26565b8114610a6e57600080fd5b50565b600081359050610a8081610a5a565b92915050565b600060208284031215610a9c57610a9b610996565b5b6000610aaa84828501610a71565b91505092915050565b610abc816109bb565b82525050565b6000602082019050610ad76000830184610ab3565b92915050565b600082825260208201905092915050565b7f4f776e61626c653a2063616c6c6572206973206e6f7420746865206f776e6572600082015250565b6000610b24602083610add565b9150610b2f82610aee565b602082019050919050565b60006020820190508181036000830152610b5381610b17565b9050919050565b600081905092915050565b50565b6000610b75600083610b5a565b9150610b8082610b65565b600082019050919050565b6000610b9682610b68565b9150819050919050565b7f4661696c656420746f2073656e64210000000000000000000000000000000000600082015250565b6000610bd6600f83610add565b9150610be182610ba0565b602082019050919050565b60006020820190508181036000830152610c0581610bc9565b9050919050565b7f4e487b7100000000000000000000000000000000000000000000000000000000600052603260045260246000fd5b7f4e487b7100000000000000000000000000000000000000000000000000000000600052601160045260246000fd5b6000610c7582610a26565b91507fffffffffffffffffffffffffffffffffffffffffffffffffffffffffffffffff821415610ca857610ca7610c3b565b5b600182019050919050565b7f4e487b7100000000000000000000000000000000000000000000000000000000600052604160045260246000fd5b6000610ced82610a26565b9150610cf883610a26565b9250817fffffffffffffffffffffffffffffffffffffffffffffffffffffffffffffffff0483118215151615610d3157610d30610c3b565b5b828202905092915050565b7f4e487b7100000000000000000000000000000000000000000000000000000000600052601260045260246000fd5b6000610d7682610a26565b9150610d8183610a26565b925082610d9157610d90610d3c565b5b828204905092915050565b600069ffffffffffffffffffff82169050919050565b610dbb81610d9c565b8114610dc657600080fd5b50565b600081519050610dd881610db2565b92915050565b6000819050919050565b610df181610dde565b8114610dfc57600080fd5b50565b600081519050610e0e81610de8565b92915050565b600081519050610e2381610a5a565b92915050565b600080600080600060a08688031215610e4557610e44610996565b5b6000610e5388828901610dc9565b9550506020610e6488828901610dff565b9450506040610e7588828901610e14565b9350506060610e8688828901610e14565b9250506080610e9788828901610dc9565b9150509295509295909350565b6000610eaf82610dde565b9150610eba83610dde565b9250827f7fffffffffffffffffffffffffffffffffffffffffffffffffffffffffffffff0482116000841360008413161615610ef957610ef8610c3b565b5b817f80000000000000000000000000000000000000000000000000000000000000000583126000841260008413161615610f3657610f35610c3b565b5b827f80000000000000000000000000000000000000000000000000000000000000000582126000841360008412161615610f7357610f72610c3b565b5b827f7fffffffffffffffffffffffffffffffffffffffffffffffffffffffffffffff0582126000841260008412161615610fb057610faf610c3b565b5b828202905092915050565b7f546865206d696e696d756d20646f6e6174696f6e20616d6f756e74206973203060008201527f2e31555344210000000000000000000000000000000000000000000000000000602082015250565b6000611017602683610add565b915061102282610fbb565b604082019050919050565b600060208201905081810360008301526110468161100a565b9050919050565b600061105882610a26565b915061106383610a26565b9250827fffffffffffffffffffffffffffffffffffffffffffffffffffffffffffffffff0382111561109857611097610c3b565b5b828201905092915050565b7f4f776e61626c653a206e6577206f776e657220697320746865207a65726f206160008201527f6464726573730000000000000000000000000000000000000000000000000000602082015250565b60006110ff602683610add565b915061110a826110a3565b604082019050919050565b6000602082019050818103600083015261112e816110f2565b905091905056fea26469706673582212203eedfcea214d3f063235b697b27745e6fb7725b86b4ffe09d6d117c3a0eab6a764736f6c634300080b0033",
  "immutableReferences": {},
  "source": "//SPDX-License-Identifier: MIT\r\n\r\npragma solidity ^0.8.11;\r\n\r\n// Get the latest BNB/USD price from chainlink price feed\r\nimport \"@chainlink/contracts/src/v0.8/interfaces/AggregatorV3Interface.sol\";\r\nimport \"@openzeppelin/contracts/access/Ownable.sol\";\r\n\r\ncontract FundMe is Ownable {    \r\n    // mapping to store which address depositeded how much BNB\r\n    mapping(address => uint256) public addressToAmountFunded;\r\n    // array of addresses who deposited\r\n    address[] public funders;\r\n    // priceFeed to get how much USD it is for a certain amount of BNB\r\n    AggregatorV3Interface internal priceFeed;\r\n    \r\n    // the first person to deploy the contract is\r\n    // the owner\r\n    constructor() {\r\n        // mainnet: 0x0567F2323251f0Aab15c8dFb1967E4e8A7D42aeE\r\n        priceFeed = AggregatorV3Interface(0x2514895c72f50D8bd4B4F9b1110F0D6bD2c97526); // BNB/USD price feed address testnet\r\n    }\r\n    \r\n    function fund() public payable {\r\n    \t// 18 digit number to be compared with donated amount\r\n        // because funder can input either wei | gwei | bnb\r\n        uint256 minimumUSD = 1 * 10 ** 17; // minimum of 0.1 USD\r\n        //is the donated amount less than 0.1USD?\r\n        require(getConversionRate(msg.value) >= minimumUSD, \"The minimum donation amount is 0.1USD!\");\r\n        //if not, add to mapping and funders array\r\n        addressToAmountFunded[msg.sender] += msg.value;\r\n        funders.push(msg.sender);\r\n    }\r\n    \r\n    // This function returns price without processing it, which means the price will have 8 trailing zeroes\r\n    function getLatestPrice() public view returns(uint256){\r\n        // The price feed has decimals: 8\r\n        // So 1 BNB -> price / (10 ** 8) USD\r\n        (,int256 price,,,) = priceFeed.latestRoundData();\r\n         return uint256(price * (10 ** 10)); // 18 digits\r\n    }\r\n    \r\n    // This function processes the price and answer how many USD you get for x BNB\r\n    function getConversionRate(uint256 bnbAmount) public view returns (uint256){\r\n        uint256 bnbPrice = getLatestPrice();\r\n        uint256 bnbAmountInUsd = (bnbAmount * bnbPrice) / (10 ** 18);\r\n        // the actual BNB/USD conversation rate, after adjusting the extra 0s\r\n        return bnbAmountInUsd;\r\n    }\r\n    \r\n    function withdraw() payable onlyOwner public {    \r\n\t    // payable(msg.sender).transfer(address(this).balance);\r\n        (bool sent, ) = msg.sender.call{value: address(this).balance}(\"\");\r\n        require(sent, \"Failed to send!\");\r\n\r\n       \r\n        //iterate through all the mappings and make them 0\r\n        //since all the deposited amount has been withdrawn\r\n        for (uint256 i = 0; i < funders.length; i++){\r\n            address funder = funders[i];\r\n            addressToAmountFunded[funder] = 0;\r\n        }\r\n        //funders array will be initialized to 0\r\n        funders = new address[](0);\r\n    }\r\n}",
  "sourcePath": "D:\\Learning\\Projects\\solidity-dapps\\truffle-react-fund_me\\contracts\\FundMe.sol",
  "compiler": {
    "name": "solc",
    "version": "0.8.11+commit.d7f03943.Emscripten.clang"
  },
  "schemaVersion": "3.4.4",
  "updatedAt": "2022-02-13T06:35:00.129Z",
  "networkType": "ethereum",
  "devdoc": {
    "kind": "dev",
    "methods": {
      "owner()": {
        "details": "Returns the address of the current owner."
      },
      "renounceOwnership()": {
        "details": "Leaves the contract without owner. It will not be possible to call `onlyOwner` functions anymore. Can only be called by the current owner. NOTE: Renouncing ownership will leave the contract without an owner, thereby removing any functionality that is only available to the owner."
      },
      "transferOwnership(address)": {
        "details": "Transfers ownership of the contract to a new account (`newOwner`). Can only be called by the current owner."
      }
    },
    "version": 1
  },
  "userdoc": {
    "kind": "user",
    "methods": {},
    "version": 1
  }
}